{
  "_format": "hh-sol-artifact-1",
  "contractName": "OTC",
  "sourceName": "contracts/OTC.sol",
  "abi": [
    {
      "inputs": [
        {
          "internalType": "address",
          "name": "owner_",
          "type": "address"
        },
        {
          "internalType": "contract IERC20",
          "name": "token_",
          "type": "address"
        },
        {
          "internalType": "contract IERC20",
          "name": "usdc_",
          "type": "address"
        },
        {
          "internalType": "contract AggregatorV3Interface",
          "name": "tokenUsdFeed_",
          "type": "address"
        },
        {
          "internalType": "contract AggregatorV3Interface",
          "name": "ethUsdFeed_",
          "type": "address"
        },
        {
          "internalType": "address",
          "name": "agent_",
          "type": "address"
        }
      ],
      "stateMutability": "nonpayable",
      "type": "constructor"
    },
    {
      "inputs": [],
      "name": "EnforcedPause",
      "type": "error"
    },
    {
      "inputs": [],
      "name": "ExpectedPause",
      "type": "error"
    },
    {
      "inputs": [
        {
          "internalType": "address",
          "name": "owner",
          "type": "address"
        }
      ],
      "name": "OwnableInvalidOwner",
      "type": "error"
    },
    {
      "inputs": [
        {
          "internalType": "address",
          "name": "account",
          "type": "address"
        }
      ],
      "name": "OwnableUnauthorizedAccount",
      "type": "error"
    },
    {
      "inputs": [],
      "name": "ReentrancyGuardReentrantCall",
      "type": "error"
    },
    {
      "inputs": [
        {
          "internalType": "address",
          "name": "token",
          "type": "address"
        }
      ],
      "name": "SafeERC20FailedOperation",
      "type": "error"
    },
    {
      "anonymous": false,
      "inputs": [
        {
          "indexed": true,
          "internalType": "address",
          "name": "previous",
          "type": "address"
        },
        {
          "indexed": true,
          "internalType": "address",
          "name": "newAgent",
          "type": "address"
        }
      ],
      "name": "AgentUpdated",
      "type": "event"
    },
    {
      "anonymous": false,
      "inputs": [
        {
          "indexed": true,
          "internalType": "address",
          "name": "approver",
          "type": "address"
        },
        {
          "indexed": false,
          "internalType": "bool",
          "name": "allowed",
          "type": "bool"
        }
      ],
      "name": "ApproverUpdated",
      "type": "event"
    },
    {
      "anonymous": false,
      "inputs": [
        {
          "indexed": true,
          "internalType": "uint256",
          "name": "offerId",
          "type": "uint256"
        },
        {
          "indexed": true,
          "internalType": "address",
          "name": "recipient",
          "type": "address"
        },
        {
          "indexed": false,
          "internalType": "uint256",
          "name": "amount",
          "type": "uint256"
        },
        {
          "indexed": false,
          "internalType": "enum OTC.PaymentCurrency",
          "name": "currency",
          "type": "uint8"
        }
      ],
      "name": "EmergencyRefund",
      "type": "event"
    },
    {
      "anonymous": false,
      "inputs": [
        {
          "indexed": false,
          "internalType": "bool",
          "name": "enabled",
          "type": "bool"
        }
      ],
      "name": "EmergencyRefundEnabled",
      "type": "event"
    },
    {
      "anonymous": false,
      "inputs": [
        {
          "indexed": true,
          "internalType": "address",
          "name": "tokenUsdFeed",
          "type": "address"
        },
        {
          "indexed": true,
          "internalType": "address",
          "name": "ethUsdFeed",
          "type": "address"
        }
      ],
      "name": "FeedsUpdated",
      "type": "event"
    },
    {
      "anonymous": false,
      "inputs": [
        {
          "indexed": false,
          "internalType": "uint256",
          "name": "minUsdAmount",
          "type": "uint256"
        },
        {
          "indexed": false,
          "internalType": "uint256",
          "name": "maxTokenPerOrder",
          "type": "uint256"
        },
        {
          "indexed": false,
          "internalType": "uint256",
          "name": "quoteExpirySeconds",
          "type": "uint256"
        },
        {
          "indexed": false,
          "internalType": "uint256",
          "name": "defaultUnlockDelaySeconds",
          "type": "uint256"
        }
      ],
      "name": "LimitsUpdated",
      "type": "event"
    },
    {
      "anonymous": false,
      "inputs": [
        {
          "indexed": false,
          "internalType": "uint256",
          "name": "maxFeedAgeSeconds",
          "type": "uint256"
        }
      ],
      "name": "MaxFeedAgeUpdated",
      "type": "event"
    },
    {
      "anonymous": false,
      "inputs": [
        {
          "indexed": true,
          "internalType": "uint256",
          "name": "id",
          "type": "uint256"
        },
        {
          "indexed": true,
          "internalType": "address",
          "name": "by",
          "type": "address"
        }
      ],
      "name": "OfferApproved",
      "type": "event"
    },
    {
      "anonymous": false,
      "inputs": [
        {
          "indexed": true,
          "internalType": "uint256",
          "name": "id",
          "type": "uint256"
        },
        {
          "indexed": true,
          "internalType": "address",
          "name": "by",
          "type": "address"
        }
      ],
      "name": "OfferCancelled",
      "type": "event"
    },
    {
      "anonymous": false,
      "inputs": [
        {
          "indexed": true,
          "internalType": "uint256",
          "name": "id",
          "type": "uint256"
        },
        {
          "indexed": true,
          "internalType": "address",
          "name": "beneficiary",
          "type": "address"
        },
        {
          "indexed": false,
          "internalType": "uint256",
          "name": "tokenAmount",
          "type": "uint256"
        },
        {
          "indexed": false,
          "internalType": "uint256",
          "name": "discountBps",
          "type": "uint256"
        },
        {
          "indexed": false,
          "internalType": "enum OTC.PaymentCurrency",
          "name": "currency",
          "type": "uint8"
        }
      ],
      "name": "OfferCreated",
      "type": "event"
    },
    {
      "anonymous": false,
      "inputs": [
        {
          "indexed": true,
          "internalType": "uint256",
          "name": "id",
          "type": "uint256"
        },
        {
          "indexed": true,
          "internalType": "address",
          "name": "payer",
          "type": "address"
        },
        {
          "indexed": false,
          "internalType": "uint256",
          "name": "amountPaid",
          "type": "uint256"
        }
      ],
      "name": "OfferPaid",
      "type": "event"
    },
    {
      "anonymous": false,
      "inputs": [
        {
          "indexed": true,
          "internalType": "address",
          "name": "previousOwner",
          "type": "address"
        },
        {
          "indexed": true,
          "internalType": "address",
          "name": "newOwner",
          "type": "address"
        }
      ],
      "name": "OwnershipTransferred",
      "type": "event"
    },
    {
      "anonymous": false,
      "inputs": [
        {
          "indexed": false,
          "internalType": "address",
          "name": "account",
          "type": "address"
        }
      ],
      "name": "Paused",
      "type": "event"
    },
    {
      "anonymous": false,
      "inputs": [
        {
          "indexed": true,
          "internalType": "address",
          "name": "payer",
          "type": "address"
        },
        {
          "indexed": false,
          "internalType": "uint256",
          "name": "amount",
          "type": "uint256"
        }
      ],
      "name": "RefundFailed",
      "type": "event"
    },
    {
      "anonymous": false,
      "inputs": [
        {
          "indexed": false,
          "internalType": "bool",
          "name": "enabled",
          "type": "bool"
        }
      ],
      "name": "RequireApproverFulfillUpdated",
      "type": "event"
    },
    {
      "anonymous": false,
      "inputs": [
        {
          "indexed": false,
          "internalType": "bool",
          "name": "enabled",
          "type": "bool"
        }
      ],
      "name": "RestrictFulfillUpdated",
      "type": "event"
    },
    {
      "anonymous": false,
      "inputs": [
        {
          "indexed": true,
          "internalType": "address",
          "name": "to",
          "type": "address"
        },
        {
          "indexed": false,
          "internalType": "uint256",
          "name": "usdcAmount",
          "type": "uint256"
        },
        {
          "indexed": false,
          "internalType": "uint256",
          "name": "ethAmount",
          "type": "uint256"
        }
      ],
      "name": "StableWithdrawn",
      "type": "event"
    },
    {
      "anonymous": false,
      "inputs": [
        {
          "indexed": false,
          "internalType": "uint256",
          "name": "offersRemoved",
          "type": "uint256"
        }
      ],
      "name": "StorageCleaned",
      "type": "event"
    },
    {
      "anonymous": false,
      "inputs": [
        {
          "indexed": false,
          "internalType": "uint256",
          "name": "amount",
          "type": "uint256"
        }
      ],
      "name": "TokenDeposited",
      "type": "event"
    },
    {
      "anonymous": false,
      "inputs": [
        {
          "indexed": false,
          "internalType": "uint256",
          "name": "amount",
          "type": "uint256"
        }
      ],
      "name": "TokenWithdrawn",
      "type": "event"
    },
    {
      "anonymous": false,
      "inputs": [
        {
          "indexed": true,
          "internalType": "uint256",
          "name": "id",
          "type": "uint256"
        },
        {
          "indexed": true,
          "internalType": "address",
          "name": "beneficiary",
          "type": "address"
        },
        {
          "indexed": false,
          "internalType": "uint256",
          "name": "amount",
          "type": "uint256"
        }
      ],
      "name": "TokensClaimed",
      "type": "event"
    },
    {
      "anonymous": false,
      "inputs": [
        {
          "indexed": false,
          "internalType": "address",
          "name": "account",
          "type": "address"
        }
      ],
      "name": "Unpaused",
      "type": "event"
    },
    {
      "inputs": [
        {
          "internalType": "uint256",
          "name": "offerId",
          "type": "uint256"
        }
      ],
      "name": "adminEmergencyWithdraw",
      "outputs": [],
      "stateMutability": "nonpayable",
      "type": "function"
    },
    {
      "inputs": [],
      "name": "agent",
      "outputs": [
        {
          "internalType": "address",
          "name": "",
          "type": "address"
        }
      ],
      "stateMutability": "view",
      "type": "function"
    },
    {
      "inputs": [
        {
          "internalType": "uint256",
          "name": "",
          "type": "uint256"
        }
      ],
      "name": "approvalCount",
      "outputs": [
        {
          "internalType": "uint256",
          "name": "",
          "type": "uint256"
        }
      ],
      "stateMutability": "view",
      "type": "function"
    },
    {
      "inputs": [
        {
          "internalType": "uint256",
          "name": "offerId",
          "type": "uint256"
        }
      ],
      "name": "approveOffer",
      "outputs": [],
      "stateMutability": "nonpayable",
      "type": "function"
    },
    {
      "inputs": [
        {
          "internalType": "uint256[]",
          "name": "offerIds",
          "type": "uint256[]"
        }
      ],
      "name": "autoClaim",
      "outputs": [],
      "stateMutability": "nonpayable",
      "type": "function"
    },
    {
      "inputs": [],
      "name": "availableTokenInventory",
      "outputs": [
        {
          "internalType": "uint256",
          "name": "",
          "type": "uint256"
        }
      ],
      "stateMutability": "view",
      "type": "function"
    },
    {
      "inputs": [
        {
          "internalType": "uint256",
          "name": "offerId",
          "type": "uint256"
        }
      ],
      "name": "cancelOffer",
      "outputs": [],
      "stateMutability": "nonpayable",
      "type": "function"
    },
    {
      "inputs": [
        {
          "internalType": "uint256",
          "name": "offerId",
          "type": "uint256"
        }
      ],
      "name": "claim",
      "outputs": [],
      "stateMutability": "nonpayable",
      "type": "function"
    },
    {
      "inputs": [
        {
          "internalType": "uint256",
          "name": "maxToClean",
          "type": "uint256"
        }
      ],
      "name": "cleanupExpiredOffers",
      "outputs": [],
      "stateMutability": "nonpayable",
      "type": "function"
    },
    {
      "inputs": [
        {
          "internalType": "uint256",
          "name": "tokenAmount",
          "type": "uint256"
        },
        {
          "internalType": "uint256",
          "name": "discountBps",
          "type": "uint256"
        },
        {
          "internalType": "enum OTC.PaymentCurrency",
          "name": "currency",
          "type": "uint8"
        },
        {
          "internalType": "uint256",
          "name": "lockupSeconds",
          "type": "uint256"
        }
      ],
      "name": "createOffer",
      "outputs": [
        {
          "internalType": "uint256",
          "name": "offerId",
          "type": "uint256"
        }
      ],
      "stateMutability": "nonpayable",
      "type": "function"
    },
    {
      "inputs": [],
      "name": "defaultUnlockDelaySeconds",
      "outputs": [
        {
          "internalType": "uint256",
          "name": "",
          "type": "uint256"
        }
      ],
      "stateMutability": "view",
      "type": "function"
    },
    {
      "inputs": [
        {
          "internalType": "uint256",
          "name": "amount",
          "type": "uint256"
        }
      ],
      "name": "depositTokens",
      "outputs": [],
      "stateMutability": "nonpayable",
      "type": "function"
    },
    {
      "inputs": [
        {
          "internalType": "uint256",
          "name": "offerId",
          "type": "uint256"
        }
      ],
      "name": "emergencyRefund",
      "outputs": [],
      "stateMutability": "nonpayable",
      "type": "function"
    },
    {
      "inputs": [],
      "name": "emergencyRefundDeadline",
      "outputs": [
        {
          "internalType": "uint256",
          "name": "",
          "type": "uint256"
        }
      ],
      "stateMutability": "view",
      "type": "function"
    },
    {
      "inputs": [],
      "name": "emergencyRefundsEnabled",
      "outputs": [
        {
          "internalType": "bool",
          "name": "",
          "type": "bool"
        }
      ],
      "stateMutability": "view",
      "type": "function"
    },
    {
      "inputs": [],
      "name": "ethUsdFeed",
      "outputs": [
        {
          "internalType": "contract AggregatorV3Interface",
          "name": "",
          "type": "address"
        }
      ],
      "stateMutability": "view",
      "type": "function"
    },
    {
      "inputs": [
        {
          "internalType": "uint256",
          "name": "offerId",
          "type": "uint256"
        }
      ],
      "name": "fulfillOffer",
      "outputs": [],
      "stateMutability": "payable",
      "type": "function"
    },
    {
      "inputs": [
        {
          "internalType": "address",
          "name": "who",
          "type": "address"
        }
      ],
      "name": "getOffersForBeneficiary",
      "outputs": [
        {
          "internalType": "uint256[]",
          "name": "",
          "type": "uint256[]"
        }
      ],
      "stateMutability": "view",
      "type": "function"
    },
    {
      "inputs": [],
      "name": "getOpenOfferIds",
      "outputs": [
        {
          "internalType": "uint256[]",
          "name": "",
          "type": "uint256[]"
        }
      ],
      "stateMutability": "view",
      "type": "function"
    },
    {
      "inputs": [
        {
          "internalType": "address",
          "name": "",
          "type": "address"
        }
      ],
      "name": "isApprover",
      "outputs": [
        {
          "internalType": "bool",
          "name": "",
          "type": "bool"
        }
      ],
      "stateMutability": "view",
      "type": "function"
    },
    {
      "inputs": [],
      "name": "manualEthPrice",
      "outputs": [
        {
          "internalType": "uint256",
          "name": "",
          "type": "uint256"
        }
      ],
      "stateMutability": "view",
      "type": "function"
    },
    {
      "inputs": [],
      "name": "manualPriceTimestamp",
      "outputs": [
        {
          "internalType": "uint256",
          "name": "",
          "type": "uint256"
        }
      ],
      "stateMutability": "view",
      "type": "function"
    },
    {
      "inputs": [],
      "name": "manualTokenPrice",
      "outputs": [
        {
          "internalType": "uint256",
          "name": "",
          "type": "uint256"
        }
      ],
      "stateMutability": "view",
      "type": "function"
    },
    {
      "inputs": [],
      "name": "maxFeedAgeSeconds",
      "outputs": [
        {
          "internalType": "uint256",
          "name": "",
          "type": "uint256"
        }
      ],
      "stateMutability": "view",
      "type": "function"
    },
    {
      "inputs": [],
      "name": "maxLockupSeconds",
      "outputs": [
        {
          "internalType": "uint256",
          "name": "",
          "type": "uint256"
        }
      ],
      "stateMutability": "view",
      "type": "function"
    },
    {
      "inputs": [],
      "name": "maxOpenOffersToReturn",
      "outputs": [
        {
          "internalType": "uint256",
          "name": "",
          "type": "uint256"
        }
      ],
      "stateMutability": "view",
      "type": "function"
    },
    {
      "inputs": [],
      "name": "maxTokenPerOrder",
      "outputs": [
        {
          "internalType": "uint256",
          "name": "",
          "type": "uint256"
        }
      ],
      "stateMutability": "view",
      "type": "function"
    },
    {
      "inputs": [],
      "name": "minUsdAmount",
      "outputs": [
        {
          "internalType": "uint256",
          "name": "",
          "type": "uint256"
        }
      ],
      "stateMutability": "view",
      "type": "function"
    },
    {
      "inputs": [],
      "name": "nextOfferId",
      "outputs": [
        {
          "internalType": "uint256",
          "name": "",
          "type": "uint256"
        }
      ],
      "stateMutability": "view",
      "type": "function"
    },
    {
      "inputs": [
        {
          "internalType": "uint256",
          "name": "",
          "type": "uint256"
        },
        {
          "internalType": "address",
          "name": "",
          "type": "address"
        }
      ],
      "name": "offerApprovals",
      "outputs": [
        {
          "internalType": "bool",
          "name": "",
          "type": "bool"
        }
      ],
      "stateMutability": "view",
      "type": "function"
    },
    {
      "inputs": [
        {
          "internalType": "uint256",
          "name": "",
          "type": "uint256"
        }
      ],
      "name": "offers",
      "outputs": [
        {
          "internalType": "address",
          "name": "beneficiary",
          "type": "address"
        },
        {
          "internalType": "uint256",
          "name": "tokenAmount",
          "type": "uint256"
        },
        {
          "internalType": "uint256",
          "name": "discountBps",
          "type": "uint256"
        },
        {
          "internalType": "uint256",
          "name": "createdAt",
          "type": "uint256"
        },
        {
          "internalType": "uint256",
          "name": "unlockTime",
          "type": "uint256"
        },
        {
          "internalType": "uint256",
          "name": "priceUsdPerToken",
          "type": "uint256"
        },
        {
          "internalType": "uint256",
          "name": "ethUsdPrice",
          "type": "uint256"
        },
        {
          "internalType": "enum OTC.PaymentCurrency",
          "name": "currency",
          "type": "uint8"
        },
        {
          "internalType": "bool",
          "name": "approved",
          "type": "bool"
        },
        {
          "internalType": "bool",
          "name": "paid",
          "type": "bool"
        },
        {
          "internalType": "bool",
          "name": "fulfilled",
          "type": "bool"
        },
        {
          "internalType": "bool",
          "name": "cancelled",
          "type": "bool"
        },
        {
          "internalType": "address",
          "name": "payer",
          "type": "address"
        },
        {
          "internalType": "uint256",
          "name": "amountPaid",
          "type": "uint256"
        }
      ],
      "stateMutability": "view",
      "type": "function"
    },
    {
      "inputs": [
        {
          "internalType": "uint256",
          "name": "",
          "type": "uint256"
        }
      ],
      "name": "openOfferIds",
      "outputs": [
        {
          "internalType": "uint256",
          "name": "",
          "type": "uint256"
        }
      ],
      "stateMutability": "view",
      "type": "function"
    },
    {
      "inputs": [],
      "name": "owner",
      "outputs": [
        {
          "internalType": "address",
          "name": "",
          "type": "address"
        }
      ],
      "stateMutability": "view",
      "type": "function"
    },
    {
      "inputs": [],
      "name": "pause",
      "outputs": [],
      "stateMutability": "nonpayable",
      "type": "function"
    },
    {
      "inputs": [],
      "name": "paused",
      "outputs": [
        {
          "internalType": "bool",
          "name": "",
          "type": "bool"
        }
      ],
      "stateMutability": "view",
      "type": "function"
    },
    {
      "inputs": [],
      "name": "quoteExpirySeconds",
      "outputs": [
        {
          "internalType": "uint256",
          "name": "",
          "type": "uint256"
        }
      ],
      "stateMutability": "view",
      "type": "function"
    },
    {
      "inputs": [],
      "name": "renounceOwnership",
      "outputs": [],
      "stateMutability": "nonpayable",
      "type": "function"
    },
    {
      "inputs": [],
      "name": "requireApproverToFulfill",
      "outputs": [
        {
          "internalType": "bool",
          "name": "",
          "type": "bool"
        }
      ],
      "stateMutability": "view",
      "type": "function"
    },
    {
      "inputs": [],
      "name": "requiredApprovals",
      "outputs": [
        {
          "internalType": "uint256",
          "name": "",
          "type": "uint256"
        }
      ],
      "stateMutability": "view",
      "type": "function"
    },
    {
      "inputs": [
        {
          "internalType": "uint256",
          "name": "offerId",
          "type": "uint256"
        }
      ],
      "name": "requiredEthWei",
      "outputs": [
        {
          "internalType": "uint256",
          "name": "",
          "type": "uint256"
        }
      ],
      "stateMutability": "view",
      "type": "function"
    },
    {
      "inputs": [
        {
          "internalType": "uint256",
          "name": "offerId",
          "type": "uint256"
        }
      ],
      "name": "requiredUsdcAmount",
      "outputs": [
        {
          "internalType": "uint256",
          "name": "",
          "type": "uint256"
        }
      ],
      "stateMutability": "view",
      "type": "function"
    },
    {
      "inputs": [],
      "name": "restrictFulfillToBeneficiaryOrApprover",
      "outputs": [
        {
          "internalType": "bool",
          "name": "",
          "type": "bool"
        }
      ],
      "stateMutability": "view",
      "type": "function"
    },
    {
      "inputs": [
        {
          "internalType": "address",
          "name": "newAgent",
          "type": "address"
        }
      ],
      "name": "setAgent",
      "outputs": [],
      "stateMutability": "nonpayable",
      "type": "function"
    },
    {
      "inputs": [
        {
          "internalType": "address",
          "name": "a",
          "type": "address"
        },
        {
          "internalType": "bool",
          "name": "allowed",
          "type": "bool"
        }
      ],
      "name": "setApprover",
      "outputs": [],
      "stateMutability": "nonpayable",
      "type": "function"
    },
    {
      "inputs": [
        {
          "internalType": "bool",
          "name": "enabled",
          "type": "bool"
        }
      ],
      "name": "setEmergencyRefund",
      "outputs": [],
      "stateMutability": "nonpayable",
      "type": "function"
    },
    {
      "inputs": [
        {
          "internalType": "uint256",
          "name": "days_",
          "type": "uint256"
        }
      ],
      "name": "setEmergencyRefundDeadline",
      "outputs": [],
      "stateMutability": "nonpayable",
      "type": "function"
    },
    {
      "inputs": [
        {
          "internalType": "contract AggregatorV3Interface",
          "name": "tokenUsd",
          "type": "address"
        },
        {
          "internalType": "contract AggregatorV3Interface",
          "name": "ethUsd",
          "type": "address"
        }
      ],
      "name": "setFeeds",
      "outputs": [],
      "stateMutability": "nonpayable",
      "type": "function"
    },
    {
      "inputs": [
        {
          "internalType": "uint256",
          "name": "minUsd",
          "type": "uint256"
        },
        {
          "internalType": "uint256",
          "name": "maxToken",
          "type": "uint256"
        },
        {
          "internalType": "uint256",
          "name": "expirySecs",
          "type": "uint256"
        },
        {
          "internalType": "uint256",
          "name": "unlockDelaySecs",
          "type": "uint256"
        }
      ],
      "name": "setLimits",
      "outputs": [],
      "stateMutability": "nonpayable",
      "type": "function"
    },
    {
      "inputs": [
        {
          "internalType": "uint256",
          "name": "tokenPrice",
          "type": "uint256"
        },
        {
          "internalType": "uint256",
          "name": "ethPrice",
          "type": "uint256"
        },
        {
          "internalType": "bool",
          "name": "useManual",
          "type": "bool"
        }
      ],
      "name": "setManualPrices",
      "outputs": [],
      "stateMutability": "nonpayable",
      "type": "function"
    },
    {
      "inputs": [
        {
          "internalType": "uint256",
          "name": "secs",
          "type": "uint256"
        }
      ],
      "name": "setMaxFeedAge",
      "outputs": [],
      "stateMutability": "nonpayable",
      "type": "function"
    },
    {
      "inputs": [
        {
          "internalType": "uint256",
          "name": "maxSecs",
          "type": "uint256"
        }
      ],
      "name": "setMaxLockup",
      "outputs": [],
      "stateMutability": "nonpayable",
      "type": "function"
    },
    {
      "inputs": [
        {
          "internalType": "bool",
          "name": "enabled",
          "type": "bool"
        }
      ],
      "name": "setRequireApproverToFulfill",
      "outputs": [],
      "stateMutability": "nonpayable",
      "type": "function"
    },
    {
      "inputs": [
        {
          "internalType": "uint256",
          "name": "required",
          "type": "uint256"
        }
      ],
      "name": "setRequiredApprovals",
      "outputs": [],
      "stateMutability": "nonpayable",
      "type": "function"
    },
    {
      "inputs": [
        {
          "internalType": "bool",
          "name": "enabled",
          "type": "bool"
        }
      ],
      "name": "setRestrictFulfill",
      "outputs": [],
      "stateMutability": "nonpayable",
      "type": "function"
    },
    {
      "inputs": [],
      "name": "token",
      "outputs": [
        {
          "internalType": "contract IERC20",
          "name": "",
          "type": "address"
        }
      ],
      "stateMutability": "view",
      "type": "function"
    },
    {
      "inputs": [],
      "name": "tokenDeposited",
      "outputs": [
        {
          "internalType": "uint256",
          "name": "",
          "type": "uint256"
        }
      ],
      "stateMutability": "view",
      "type": "function"
    },
    {
      "inputs": [],
      "name": "tokenReserved",
      "outputs": [
        {
          "internalType": "uint256",
          "name": "",
          "type": "uint256"
        }
      ],
      "stateMutability": "view",
      "type": "function"
    },
    {
      "inputs": [],
      "name": "tokenUsdFeed",
      "outputs": [
        {
          "internalType": "contract AggregatorV3Interface",
          "name": "",
          "type": "address"
        }
      ],
      "stateMutability": "view",
      "type": "function"
    },
    {
      "inputs": [
        {
          "internalType": "uint256",
          "name": "offerId",
          "type": "uint256"
        }
      ],
      "name": "totalUsdForOffer",
      "outputs": [
        {
          "internalType": "uint256",
          "name": "",
          "type": "uint256"
        }
      ],
      "stateMutability": "view",
      "type": "function"
    },
    {
      "inputs": [
        {
          "internalType": "address",
          "name": "newOwner",
          "type": "address"
        }
      ],
      "name": "transferOwnership",
      "outputs": [],
      "stateMutability": "nonpayable",
      "type": "function"
    },
    {
      "inputs": [],
      "name": "unpause",
      "outputs": [],
      "stateMutability": "nonpayable",
      "type": "function"
    },
    {
      "inputs": [],
      "name": "usdc",
      "outputs": [
        {
          "internalType": "contract IERC20",
          "name": "",
          "type": "address"
        }
      ],
      "stateMutability": "view",
      "type": "function"
    },
    {
      "inputs": [],
      "name": "useManualPrices",
      "outputs": [
        {
          "internalType": "bool",
          "name": "",
          "type": "bool"
        }
      ],
      "stateMutability": "view",
      "type": "function"
    },
    {
      "inputs": [
        {
          "internalType": "address",
          "name": "to",
          "type": "address"
        },
        {
          "internalType": "uint256",
          "name": "usdcAmount",
          "type": "uint256"
        },
        {
          "internalType": "uint256",
          "name": "ethAmount",
          "type": "uint256"
        }
      ],
      "name": "withdrawStable",
      "outputs": [],
      "stateMutability": "nonpayable",
      "type": "function"
    },
    {
      "inputs": [
        {
          "internalType": "uint256",
          "name": "amount",
          "type": "uint256"
        }
      ],
      "name": "withdrawTokens",
      "outputs": [],
      "stateMutability": "nonpayable",
      "type": "function"
    },
    {
      "stateMutability": "payable",
      "type": "receive"
    }
  ],
  "bytecode": "0x60c080604052346104a75760c081613cdd803803809161001f82856104ac565b8339810103126104a757610032816104e5565b61003e602083016104e5565b9061004b604084016104e5565b92610058606082016104e5565b61007060a0610069608085016104e5565b93016104e5565b6001600160a01b0390931693841561049157600080546001600160a01b031981168717825560405196916001600160a01b03909116907f8be0079c531659141344cd1fd0a4f28419497f9722a3daafe3b4186f6b6457e09080a36001805560ff1960075416600755631dcd650060085569021e19e0c9bab2400000600955610708600a556000600b55610e10600c556301e13380600d556064600e5561ffff19600f5416600f556001601455600160175560ff19601b5416601b5562278d00601c5560018060a01b038116948515158061047f575b15610450575060805260a0859052600280546001600160a01b039283166001600160a01b0319918216811790925560038054948416948216851790556012805495909316941693909317905560405163313ce56760e01b81529091602090829060049082905afa9081156103335760089160ff91600091610431575b5016036103ec5760206004916040519283809263313ce56760e01b82525afa9081156103335760089160ff916000916103cd575b5016036103945760206004916040519283809263313ce56760e01b82525afa9081156103335760129160ff91600091610375575b50160361033f5760405163313ce56760e01b815290602090829060049082906001600160a01b03165afa9081156103335760069160ff91600091610304575b5016036102cf576040516137ca90816105138239608051818181610301015281816107f6015281816112750152818161158301528181612440015281816125360152612df8015260a05181818161051201528181610c4a01528181611a4d01526122d30152f35b60405162461bcd60e51b815260206004820152600d60248201526c7573646320646563696d616c7360981b6044820152606490fd5b610326915060203d60201161032c575b61031e81836104ac565b8101906104f9565b38610268565b503d610314565b6040513d6000823e3d90fd5b60405162461bcd60e51b815260206004820152600e60248201526d746f6b656e20646563696d616c7360901b6044820152606490fd5b61038e915060203d60201161032c5761031e81836104ac565b38610229565b60405162461bcd60e51b8152602060048201526011602482015270657468206665656420646563696d616c7360781b6044820152606490fd5b6103e6915060203d60201161032c5761031e81836104ac565b386101f5565b60405162461bcd60e51b815260206004820152601360248201527f746f6b656e206665656420646563696d616c73000000000000000000000000006044820152606490fd5b61044a915060203d60201161032c5761031e81836104ac565b386101c1565b62461bcd60e51b815260206004820152600a60248201526962616420746f6b656e7360b01b6044820152606490fd5b506001600160a01b0387161515610145565b631e4fbdf760e01b600052600060045260246000fd5b600080fd5b601f909101601f19168101906001600160401b038211908210176104cf57604052565b634e487b7160e01b600052604160045260246000fd5b51906001600160a01b03821682036104a757565b908160209103126104a7575160ff811681036104a7579056fe6080604052600436101561001b575b361561001957600080fd5b005b60003560e01c806304518e3d14612b51578063062075cc14612b195780631003c6f214612a8957806311d69ceb14612a06578063121284dc146129a25780631479cdba146129845780631ac6d8ba146129665780632014b71c14612814578063222a242e146127955780632653216314612597578063315a095d146124cb578063379607f514612371578063394cf10e1461234e5780633b2fb8c5146123025780633e413bee146122bd5780633f4ba83a1461224c57806340ad01ea14612220578063433fe9971461220257806348186b0b146121e457806348d40bfb146121c95780634c707d92146121a85780635415b7541461215b57806356b3353714611f8a5780635c975abb14611f645780635ef5f02914611f465780635f5d065514611f285780636087798914611c68578063677aa97414611c4a5780636d218e4814611c0b57806370e5deb91461185e578063715018a6146118055780637c941a23146117a75780638009b7bd1461177e5780638456cb591461171c57806388b3729e146114fa5780638a72ea6a146114155780638ba84da1146113ef5780638da5cb5b146113c65780638f2a8492146113a3578063923ea7471461137a57806399c1aadc1461135c5780639a3992d114611195578063a075b7c714611117578063a5d7c10a14610f07578063bcf685ed14610e62578063c719a53614610e04578063c78545d914610a03578063ce8e4830146109e5578063d22dbcf114610997578063d3219efb14610979578063d76fd2e7146108fa578063dadc1aea14610832578063dd49756e146107af578063e195d09614610791578063e33ac16014610773578063e343d9b414610755578063ebe1947414610732578063ef706adf1461056e578063f0ee4a4814610441578063f1f3d78614610423578063f2fde38b1461039a578063f52a70f21461037c578063f5cf513b1461035e578063f5ff5c76146103355763fc0c546a0361000e5734610330576000366003190112610330576040517f00000000000000000000000000000000000000000000000000000000000000006001600160a01b03168152602090f35b600080fd5b34610330576000366003190112610330576012546040516001600160a01b039091168152602090f35b34610330576000366003190112610330576020600554604051908152f35b34610330576000366003190112610330576020600b54604051908152f35b34610330576020366003190112610330576103b3612c2a565b6103bb612f92565b6001600160a01b0316801561040d57600080546001600160a01b03198116831782556001600160a01b0316907f8be0079c531659141344cd1fd0a4f28419497f9722a3daafe3b4186f6b6457e09080a3005b631e4fbdf760e01b600052600060045260246000fd5b34610330576000366003190112610330576020600c54604051908152f35b346103305760603660031901126103305761045a612c2a565b602435604435610468612f92565b610470613140565b6001600160a01b03831692831561053d57828061050c575b5050806104c6575b7facfca0845eda0bcbd22737cb8526cda0fb6e3deeac93ede1ecb1fabec14843fc9160409182519182526020820152a260018055005b600080808084875af16104d7612f17565b506104905760405162461bcd60e51b815260206004820152600860248201526732ba34103c3332b960c11b6044820152606490fd5b610536917f0000000000000000000000000000000000000000000000000000000000000000613162565b8382610488565b60405162461bcd60e51b81526020600482015260096024820152683d32b9379030b2323960b91b6044820152606490fd5b346103305760203660031901126103305760043561058a613140565b6105926131a4565b600081815260186020526040902080546001600160a01b03166105b6811515612c9d565b600782019182549160ff8360101c161580610724575b156106f05733148080156106dc575b80156106c8575b80156106b0575b1561068157610632575b5064ff00000000191664010000000017905533907f1f51377b3e685a0e2419f9bb4ba7c07ec54936353ba3d0fb3c6538dab6766222600080a360018055005b60030154600a5461064291612d05565b421061064e57836105f3565b60405162461bcd60e51b815260206004820152600b60248201526a1b9bdd08195e1c1a5c995960aa1b6044820152606490fd5b60405162461bcd60e51b81526020600482015260076024820152660dcde40c2eae8d60cb1b6044820152606490fd5b5033600052601360205260ff604060002054166105e9565b506012546001600160a01b031633146105e2565b506000546001600160a01b031633146105db565b60405162461bcd60e51b815260206004820152600c60248201526b185b1c9958591e481c185a5960a21b6044820152606490fd5b5060ff8360181c16156105cc565b3461033057600036600319011261033057602060ff600754166040519015158152f35b34610330576000366003190112610330576020601c54604051908152f35b34610330576000366003190112610330576020601054604051908152f35b34610330576000366003190112610330576020601154604051908152f35b34610330576020366003190112610330577f26a49ee784523ce049bcbe276a63c7c9dbd9f428b1aa53633e679c9c046e885860206004356107ee612f92565b61081a8130337f0000000000000000000000000000000000000000000000000000000000000000613551565b61082681601054612d05565b601055604051908152a1005b346103305760203660031901126103305760043580600052601860205260406000209061086960018060a01b038354161515612c9d565b60ff60078301541660028110156108e4576108b557602091600661088f61089e93612d82565b91015480156108a657906135b7565b604051908152f35b506108af613495565b906135b7565b60405162461bcd60e51b81526020600482015260076024820152660dcdee8408aa8960cb1b6044820152606490fd5b634e487b7160e01b600052602160045260246000fd5b3461033057604036600319011261033057610913612c2a565b602435908115158092036103305760207fc8821a874072ba4bd135632bdcea405b70de8b2a0693a9bf625bd1643c36d3059161094d612f92565b60018060a01b0316928360005260138252604060002060ff1981541660ff8316179055604051908152a2005b34610330576000366003190112610330576020600e54604051908152f35b34610330576020366003190112610330576004356109b3612f92565b620151808102908082046201518014901517156109cf57601c55005b634e487b7160e01b600052601160045260246000fd5b34610330576000366003190112610330576020600854604051908152f35b602036600319011261033057600435610a1a613140565b610a226131a4565b600081815260186020526040902080546001600160a01b0316610a46811515612c9d565b60078201805460ff8160081c1615610dd45760ff8160201c161580610dc6575b80610db7575b610a7590612d37565b610a866003850154600a5490612d05565b4211610d8857610a94612ddd565b92610aa6600186019485541115612e9a565b600f5460ff8160081c16600014610cf95750506012546001600160a01b031633148015610ce1575b15610ca4575b60ff610adf86612d82565b911660028110156108e457610c33576006840154610b04919080156108a657906135b7565b803410610bfb57600884015580546201000064ffff010000600160c81b031990911665010000000000600160c81b033360281b161717815560ff91610b4d905b54601154612d05565b60115554169060028210156108e45760089115610b9a575b0154906040519182527f7fb472248c81d2d2657ad1d37a15db0919a52022b105945bcded16294836943b60203393a360018055005b610ba78282015434612d12565b80610bb3575b50610b65565b600080808084335af1610bc4612f17565b50610bad576040519081527faf73b0b217208b61be286bbc37095bce7eb8b9ccf617244c2f0f154e8e04e3ff60203392a283610bad565b60405162461bcd60e51b815260206004820152601060248201526f0d2dce6eaccccd2c6d2cadce840cae8d60831b6044820152606490fd5b60ff92610c42610b4d92613595565b610c6e8130337f0000000000000000000000000000000000000000000000000000000000000000613551565b600886015582546201000064ffff010000600160c81b031990911665010000000000600160c81b033360281b1617178355610b44565b60405162461bcd60e51b815260206004820152601560248201527466756c66696c6c20617070726f766572206f6e6c7960581b6044820152606490fd5b5033600052601360205260ff60406000205416610ace565b60ff16610d07575b50610ad4565b33148015610d74575b8015610d5c575b15610d225785610d01565b60405162461bcd60e51b8152602060048201526012602482015271199d5b199a5b1b081c995cdd1c9a58dd195960721b6044820152606490fd5b5033600052601360205260ff60406000205416610d17565b506012546001600160a01b03163314610d10565b60405162461bcd60e51b8152602060048201526007602482015266195e1c1a5c995960ca1b6044820152606490fd5b50601881901c60ff1615610a6c565b5060ff8160101c1615610a66565b60405162461bcd60e51b81526020600482015260086024820152673737ba1030b8383960c11b6044820152606490fd5b34610330576020366003190112610330577fd3f4cf26f9820e60d3c87594b7988281ea42db6a558d0670f6d98fd241c5cfbf6020610e40612be8565b610e48612f92565b151560ff19601b541660ff821617601b55604051908152a1005b3461033057602036600319011261033057610e7b612c2a565b610e83612f92565b6001600160a01b03168015610ed557601254816001600160a01b0382167fee7760cb405d3beb1072ae2e716857daa45a5dd52bc1383a21173199d32c7dee600080a36001600160a01b03191617601255005b60405162461bcd60e51b815260206004820152600a6024820152691e995c9bc81859d95b9d60b21b6044820152606490fd5b346103305760203660031901126103305760043560018060a01b0360125416331480156110fe575b610f3890612f57565b610f406131a4565b60008181526018602052604090208054610f64906001600160a01b03161515612c9d565b6007810190610f83825460ff8160201c161590816110ef575b50612d37565b600083815260156020908152604080832033845290915290205460ff166110aa57600580610faf613346565b92015491828082111561109a57610fc591612d12565b915b041061105e5760008281526015602090815260408083203384528252808320805460ff1916600117905584835260169091529020805461100690612cf6565b9055816000526016602052604060002054601454111561104b575b5033907f4a2698bb88989004e5a2f73686d0fe7c6c15b59414ffe31b59e2e3e7c15712ee600080a3005b805461ff00191661010017905581611021565b60405162461bcd60e51b81526020600482015260146024820152730e0e4d2c6ca40dadeeccac840e8dede40daeac6d60631b6044820152606490fd5b906110a491612d12565b91610fc7565b60405162461bcd60e51b815260206004820152601760248201527f616c726561647920617070726f76656420627920796f750000000000000000006044820152606490fd5b60ff915060101c161585610f7d565b503360009081526013602052604090205460ff16610f2f565b34610330576080366003190112610330577fe3eb5d4eccdae2d96efa105f65c8db865f9fc72984f2b879a27448fed50d1815608060043560643560443560243561115f612f92565b61116d600d54841115612ed9565b836008558060095581600a5582600b55604051938452602084015260408301526060820152a1005b34610330576020366003190112610330576004356111b1612f92565b6111b9613140565b8060005260186020526040600020906111dc60018060a01b038354161515612c9d565b60078201805460ff8160101c168061134e575b80611340575b1561130b57600484015462ed4e0081018091116109cf5742106112c65763010000009063ff000000191617905560018201916112348354601154612d12565b601155546001600160a01b03169182156112b3575b6020816112997f880f2ef2613b092f1a0a819f294155c98667eb294b7e6bf7a3810278142c1a1c9354867f0000000000000000000000000000000000000000000000000000000000000000613162565b546040519081526001600160a01b0390941693a360018055005b6000546001600160a01b03169250611249565b60405162461bcd60e51b815260206004820152601f60248201527f6d757374207761697420313830206461797320616674657220756e6c6f636b006044820152606490fd5b60405162461bcd60e51b815260206004820152600d60248201526c696e76616c696420737461746560981b6044820152606490fd5b5060ff8160201c16156111f5565b5060ff8160181c16156111ef565b34610330576000366003190112610330576020601454604051908152f35b34610330576000366003190112610330576002546040516001600160a01b039091168152602090f35b3461033057600036600319011261033057602060ff601b54166040519015158152f35b34610330576000366003190112610330576000546040516001600160a01b039091168152602090f35b3461033057600036600319011261033057602060ff600f5460081c166040519015158152f35b346103305760203660031901126103305760043560005260186020526101c0604060002060018060a01b03815416906001810154906002810154600382015460048301546005840154916006850154936008600787015496015496604051988952602089015260408801526060870152608086015260a085015260c08401526114a460e0840160ff8316612c90565b60ff8160081c16151561010084015260ff8160101c16151561012084015260ff8160181c16151561014084015260ff8160201c16151561016084015260018060a01b039060281c166101808301526101a0820152f35b346103305760203660031901126103305760043567ffffffffffffffff8111610330573660238201121561033057806004013567ffffffffffffffff8111610330573660248260051b84010111610330576012546001600160a01b031633148015611703575b61156990612f57565b611571613140565b6115796131a4565b603281116116cc577f000000000000000000000000000000000000000000000000000000000000000060005b828110156116c657600190600060248260051b8701013590811580156116ba575b61167f5780826040925260186020522090838060a01b038254161580156116a8575b8015611697575b8015611686575b61167f576004820154421061167f5760078201630100000063ff000000198254161790557f880f2ef2613b092f1a0a819f294155c98667eb294b7e6bf7a3810278142c1a1c60208584019361164e8554601154612d12565b601155611666878060a01b038254168654908a613162565b868060a01b039054169354604051908152a35b016115a5565b5050611679565b5060ff600783015460181c166115f6565b5060ff600783015460201c166115ef565b5060ff600783015460101c16156115e8565b506017548210156115c6565b60018055005b60405162461bcd60e51b815260206004820152600f60248201526e626174636820746f6f206c6172676560881b6044820152606490fd5b503360009081526013602052604090205460ff16611560565b3461033057600036600319011261033057611735612f92565b61173d6131a4565b6000805460ff60a01b1916600160a01b1790556040513381527f62e78cea01bee320cd4e420270b5ea74000d11b0c9f74754ebdbfc544b05a25890602090a1005b34610330576000366003190112610330576003546040516001600160a01b039091168152602090f35b34610330576020366003190112610330577ff863082dfb2e420e73e3835cf6a5ca9975a68401d1b1e1819aa8edb08005109a60206117e3612be8565b6117eb612f92565b151560ff19600f541660ff821617600f55604051908152a1005b346103305760003660031901126103305761181e612f92565b600080546001600160a01b0319811682556001600160a01b03167f8be0079c531659141344cd1fd0a4f28419497f9722a3daafe3b4186f6b6457e08280a3005b346103305760203660031901126103305760043561187a613140565b60ff601b541615611bc657600081815260186020526040902080549091906001600160a01b03166118ac811515612c9d565b600783019081549060ff8260101c1680611bb8575b80611baa575b15611b655733602883901c6001600160a01b031614908115611b5b575b508015611b47575b8015611b33575b8015611b1b575b15611ad6576119106003850154601c5490612d05565b4210801590611abb575b15611a76576401000000009064ff0000000019161781556119416001840154601154612d12565b601155805460ff811660028110156108e457611a0e5750600080808060018060a01b03855460281c166008880154905af161197a612f17565b50156119d557604060087fbaaee93bed811019da888f1cb314bc4d6a1f81639c738931b3e400e3d3568b7c925b549401549381519485526119c16020860160ff8316612c90565b60281c6001600160a01b031693a360018055005b60405162461bcd60e51b8152602060048201526011602482015270115512081c99599d5b990819985a5b1959607a1b6044820152606490fd5b6008848101547fbaaee93bed811019da888f1cb314bc4d6a1f81639c738931b3e400e3d3568b7c936040939091611a719160281c6001600160a01b03167f0000000000000000000000000000000000000000000000000000000000000000613162565b6119a7565b60405162461bcd60e51b815260206004820152601e60248201527f746f6f206561726c7920666f7220656d657267656e637920726566756e6400006044820152606490fd5b50600484015462278d0081018091116109cf5742101561191a565b60405162461bcd60e51b815260206004820152601960248201527f6e6f7420617574686f72697a656420666f7220726566756e64000000000000006044820152606490fd5b5033600052601360205260ff604060002054166118fa565b506012546001600160a01b031633146118f3565b506000546001600160a01b031633146118ec565b90503314856118e4565b60405162461bcd60e51b815260206004820152601860248201527f696e76616c696420737461746520666f7220726566756e6400000000000000006044820152606490fd5b5060ff8260201c16156118c7565b5060ff8260181c16156118c1565b60405162461bcd60e51b815260206004820152601a60248201527f656d657267656e637920726566756e64732064697361626c65640000000000006044820152606490fd5b34610330576020366003190112610330576001600160a01b03611c2c612c2a565b166000526013602052602060ff604060002054166040519015158152f35b34610330576000366003190112610330576020600654604051908152f35b3461033057608036600319011261033057600435604435602435600282101561033057606435611c966131a4565b83151580611f1c575b15611ee8576109c48211611ebd57611cb5613346565b92611cc08486613659565b83612710039061271082116109cf5761271091611cdc91612d6f565b0460085411611e8f57611cf885611cf1612ddd565b1015612e9a565b60175493611d0585612cf6565b601755600085815260186020526040902080546001600160a01b031916331781556001810187905560028101859055426003820155928015611e8357611d5a905b611d54600d54821115612ed9565b42612d05565b600484015560058301556007820160ff1981541660ff83161790558015611e71575b33600052601a60205260406000208054600160401b811015611e4e57611dac81611dc59360018994018155612c12565b90919082549060031b91821b91600019901b1916179055565b6103e86019541015611e64575b60195491600160401b831015611e4e57602095611e457f2985a0f55b778a906ac6ba5d8cd38741b9763eb5a63e13a91f87ee555221735693606093611e2489611dac896001839b016019556019612c12565b54604080519485528a8501989098526001600160a01b031696830190612c90565ba3604051908152f35b634e487b7160e01b600052604160045260246000fd5b611e6c612fbb565b611dd2565b611e79613495565b6006830155611d7c565b50611d5a600b54611d46565b60405162461bcd60e51b81526020600482015260066024820152656d696e20243560d01b6044820152606490fd5b606460405162461bcd60e51b81526020600482015260046024820152636469736360e01b6044820152fd5b60405162461bcd60e51b815260206004820152600c60248201526b616d6f756e742072616e676560a01b6044820152606490fd5b50600954841115611c9f565b34610330576000366003190112610330576020601754604051908152f35b34610330576000366003190112610330576020600954604051908152f35b3461033057600036600319011261033057602060ff60005460a01c166040519015158152f35b3461033057604036600319011261033057611fa3612c2a565b611fab612c40565b90611fb4612f92565b60405163313ce56760e01b81526001600160a01b03919091169190602081600481865afa9081156120f55760089160ff9160009161213c575b5016036121015760405163313ce56760e01b81526001600160a01b03919091169190602081600481865afa9081156120f55760089160ff916000916120c6575b50160361208d57806bffffffffffffffffffffffff60a01b6002541617600255816bffffffffffffffffffffffff60a01b60035416176003557f34a557dba1637cb357638b5ca960120a9bfa14b86aaa9efaef74bce526773399600080a3005b60405162461bcd60e51b8152602060048201526011602482015270657468206665656420646563696d616c7360781b6044820152606490fd5b6120e8915060203d6020116120ee575b6120e08183612cd4565b810190612e81565b8561202d565b503d6120d6565b6040513d6000823e3d90fd5b60405162461bcd60e51b8152602060048201526013602482015272746f6b656e206665656420646563696d616c7360681b6044820152606490fd5b612155915060203d6020116120ee576120e08183612cd4565b85611fed565b3461033057604036600319011261033057612174612c40565b600435600052601560205260406000209060018060a01b0316600052602052602060ff604060002054166040519015158152f35b34610330576020366003190112610330576121c1612f92565b600435600d55005b3461033057600036600319011261033057602061089e612ddd565b34610330576000366003190112610330576020600a54604051908152f35b3461033057602036600319011261033057602061089e600435612d82565b346103305760203660031901126103305760043560005260166020526020604060002054604051908152f35b3461033057600036600319011261033057612265612f92565b60005460ff8160a01c16156122ac5760ff60a01b19166000556040513381527f5db9ee0a495bf2e6ff9c91a7834c1ba4fdd244a5e8aa4e537bd38aeae4b073aa90602090a1005b638dfc202b60e01b60005260046000fd5b34610330576000366003190112610330576040517f00000000000000000000000000000000000000000000000000000000000000006001600160a01b03168152602090f35b34610330576020366003190112610330577f6b51c7df853e7ef8a7b6bda387bb4a86285f93acf5f0819f0e94de7e4e9227c86020600435612341612f92565b80600c55604051908152a1005b3461033057600036600319011261033057602060ff600f54166040519015158152f35b346103305760203660031901126103305760043561238d613140565b6123956131a4565b8060005260186020526040600020906123b860018060a01b038354161515612c9d565b60078201805460ff8160101c16806124bd575b806124ae575b6123da90612d37565b600484015442106124805763010000009063ff00000019161790557f880f2ef2613b092f1a0a819f294155c98667eb294b7e6bf7a3810278142c1a1c6020600184019361242a8554601154612d12565b60115580548554612464916001600160a01b03167f0000000000000000000000000000000000000000000000000000000000000000613162565b5493546040519081526001600160a01b0390941693a360018055005b60405162461bcd60e51b81526020600482015260066024820152651b1bd8dad95960d21b6044820152606490fd5b50601881901c60ff16156123d1565b5060ff8160201c16156123cb565b34610330576020366003190112610330576004356124e7612f92565b6124ef613140565b806124f8612ddd565b10612567576000547fc172f6497c150fc242267f743e8e4034b31b16ee123408d6d5f75a81128de1149160209161255a9082906001600160a01b03167f0000000000000000000000000000000000000000000000000000000000000000613162565b604051908152a160018055005b60405162461bcd60e51b81526020600482015260086024820152671c995cd95c9d995960c21b6044820152606490fd5b3461033057600036600319011261033057601954600e548082111561278d576125c08183612d12565b915b600092805b82811080612784575b15612661576125de81612bf7565b90549060031b1c6000526018602052604060002060078101549060ff8260201c16159182612652575b5081612637575b50612622575b61261d90612cf6565b6125c7565b9361262f61261d91612cf6565b949050612614565b612649915060030154600a5490612d05565b4211158661260e565b60101c60ff1615915087612607565b84838361266d83612d1f565b9261267b6040519485612cd4565b808452601f1961268a82612d1f565b013660208601376000915b8381108061277b575b15612769576126ac81612bf7565b90549060031b1c6000526018602052604060002060078101549060ff8260201c1615918261275a575b508161273f575b506126f0575b6126eb90612cf6565b612695565b916126fa83612bf7565b90549060031b1c9261270b82612cf6565b9386518310156127295760206126eb9360051b8801015290506126e2565b634e487b7160e01b600052603260045260246000fd5b612751915060030154600a5490612d05565b421115866126dc565b60101c60ff16159150876126d5565b604051806127778782612c56565b0390f35b5081831061269e565b508385106125d0565b6000916125c2565b34610330576020366003190112610330576004356127b1612f92565b80151580612809575b156127c457601455005b60405162461bcd60e51b815260206004820152601a60248201527f696e76616c696420726571756972656420617070726f76616c730000000000006044820152606490fd5b50600a8111156127ba565b34610330576020366003190112610330576004358015158061295b575b156129285760009060005b60195481108061291f575b156129105761285581612bf7565b90549060031b1c6000526018602052604060002060018060a01b038154161515806128fe575b806128ec575b806128c6575b61289b575b5061289690612cf6565b61283c565b600701805464ff00000000191664010000000017905591612896906128bf90612cf6565b929061288c565b506128d86003820154600a5490612d05565b6201518081018091116109cf574211612887565b5060ff600782015460201c1615612881565b5060ff600782015460101c161561287b565b8261291757005b610019612fbb565b50818310612847565b60405162461bcd60e51b815260206004820152600b60248201526a0d2dcecc2d8d2c840dac2f60ab1b6044820152606490fd5b506064811115612831565b34610330576000366003190112610330576020600d54604051908152f35b34610330576000366003190112610330576020600454604051908152f35b34610330576020366003190112610330577f32aaf86ee178a234a949738196b431665f8042b755c7922bc2c40e6e51fbe90460206129de612be8565b6129e6612f92565b1515600f5461ff008260081b169061ff00191617600f55604051908152a1005b34610330576020366003190112610330576001600160a01b03612a27612c2a565b16600052601a602052604060002060405190816020825491828152019160005260206000209060005b818110612a735761277785612a6781870382612cd4565b60405191829182612c56565b8254845260209093019260019283019201612a50565b346103305760203660031901126103305760043580600052601860205260ff60076040600020612ac360018060a01b038254161515612c9d565b01541660028110156108e457600103612ae95761089e612ae4602092612d82565b613595565b60405162461bcd60e51b81526020600482015260086024820152676e6f74205553444360c01b6044820152606490fd5b346103305760203660031901126103305760043560195481101561033057612b42602091612bf7565b90549060031b1c604051908152f35b34610330576060366003190112610330576004356024356044359182151580930361033057612b7e612f92565b80151580612bdf575b15612ba9576004556005554260065560ff801960075416911617600755600080f35b60405162461bcd60e51b815260206004820152600e60248201526d696e76616c69642070726963657360901b6044820152606490fd5b50811515612b87565b60043590811515820361033057565b60195481101561272957601960005260206000200190600090565b80548210156127295760005260206000200190600090565b600435906001600160a01b038216820361033057565b602435906001600160a01b038216820361033057565b602060408183019282815284518094520192019060005b818110612c7a5750505090565b8251845260209384019390920191600101612c6d565b9060028210156108e45752565b15612ca457565b60405162461bcd60e51b815260206004820152600860248201526737379037b33332b960c11b6044820152606490fd5b90601f8019910116810190811067ffffffffffffffff821117611e4e57604052565b60001981146109cf5760010190565b919082018092116109cf57565b919082039182116109cf57565b67ffffffffffffffff8111611e4e5760051b60200190565b15612d3e57565b60405162461bcd60e51b815260206004820152600960248201526862616420737461746560b81b6044820152606490fd5b818102929181159184041417156109cf57565b60009081526018602052604090208054612da6906001600160a01b03161515612c9d565b6002612dbb6001830154600584015490613659565b910154612710039061271082116109cf5761271091612dd991612d6f565b0490565b6040516370a0823160e01b81523060048201526020816024817f00000000000000000000000000000000000000000000000000000000000000006001600160a01b03165afa9081156120f557600091612e4f575b50601154808210612e4857612e4591612d12565b90565b5050600090565b90506020813d602011612e79575b81612e6a60209383612cd4565b81010312610330575138612e31565b3d9150612e5d565b90816020910312610330575160ff811681036103305790565b15612ea157565b60405162461bcd60e51b815260206004820152601060248201526f34b739bab333103a37b5b2b71034b73b60811b6044820152606490fd5b15612ee057565b60405162461bcd60e51b815260206004820152600f60248201526e6c6f636b757020746f6f206c6f6e6760881b6044820152606490fd5b3d15612f52573d9067ffffffffffffffff8211611e4e5760405191612f46601f8201601f191660200184612cd4565b82523d6000602084013e565b606090565b15612f5e57565b60405162461bcd60e51b815260206004820152600c60248201526b2737ba1030b8383937bb32b960a11b6044820152606490fd5b6000546001600160a01b03163303612fa657565b63118cdaa760e01b6000523360045260246000fd5b60009081805b601954841080613136575b156130af57612fda84612bf7565b905460039190911b1c600081815260186020526040902080546001600160a01b03161515908161309c575b81613089575b81613061575b501561304c578161302d91866130339403613039575b50612cf6565b93612cf6565b92612fc1565b61304690611dac83612bf7565b38613027565b50929061305b61303391612cf6565b91612cf6565b613073915060030154600a5490612d05565b6201518081018091116109cf5742111538613011565b600781015460101c60ff1615915061300b565b600781015460201c60ff16159150613005565b92505b601954838111156130fd5780156130e757600019016130d081612bf7565b8154906000199060031b1b191690556019556130b2565b634e487b7160e01b600052603160045260246000fd5b50909150806131095750565b60207f9ddcd36b168776e324d99e26df4ddc8da838a0521965aab1cc126e62153455bb91604051908152a1565b5060648210612fcc565b600260015414613151576002600155565b633ee5aeb560e01b60005260046000fd5b60405163a9059cbb60e01b60208201526001600160a01b0390921660248301526044808301939093529181526131a29161319d606483612cd4565b6135fe565b565b60ff60005460a01c166131b357565b63d93c066560e01b60005260046000fd5b156131cb57565b60405162461bcd60e51b81526020600482015260146024820152731b585b9d585b081c1c9a58d9481d1bdbc81bdb1960621b6044820152606490fd5b519069ffffffffffffffffffff8216820361033057565b908160a09103126103305761323281613207565b91602082015191604081015191612e45608060608401519301613207565b1561325757565b60405162461bcd60e51b815260206004820152600960248201526862616420707269636560b81b6044820152606490fd5b1561328f57565b60405162461bcd60e51b815260206004820152600b60248201526a1cdd185b19481c9bdd5b9960aa1b6044820152606490fd5b156132c957565b60405162461bcd60e51b815260206004820152600b60248201526a7374616c6520707269636560a81b6044820152606490fd5b60809060208152602960208201527f6f7261636c6520756e617661696c61626c65202d20656e61626c65206d616e75604082015268616c2070726963657360b81b60608201520190565b60ff6007541661343757600254604051633fabe5a360e21b81529060a090829060049082906001600160a01b03165afa600091600092826000926000946133fa575b506133aa5760405162461bcd60e51b8152806133a6600482016132fc565b0390fd5b612e459269ffffffffffffffffffff806133d4936133ca60008913613250565b1691161015613288565b80151590816133e4575b506132c2565b6133ef915042612d12565b600c541015386133de565b9250935050613421915060a03d60a011613430575b6134198183612cd4565b81019061321e565b92915093929093919238613388565b503d61340f565b600454801561345957612e4561344f60065442612d12565b600c5410156131c4565b60405162461bcd60e51b81526020600482015260146024820152731b585b9d585b081c1c9a58d9481b9bdd081cd95d60621b6044820152606490fd5b60ff600754166134f457600354604051633fabe5a360e21b81529060a090829060049082906001600160a01b03165afa600091600092826000926000946133fa57506133aa5760405162461bcd60e51b8152806133a6600482016132fc565b600554801561350c57612e4561344f60065442612d12565b60405162461bcd60e51b815260206004820152601860248201527f6d616e75616c20657468207072696365206e6f742073657400000000000000006044820152606490fd5b6040516323b872dd60e01b60208201526001600160a01b0392831660248201529290911660448301526064808301939093529181526131a29161319d608483612cd4565b612e45906305f5e100620f42406135ad8282856136f1565b9209151590612d05565b906135cb81670de0b6b3a7640000846136f1565b9080156135e857670de0b6b3a7640000612e459309151590612d05565b634e487b7160e01b600052601260045260246000fd5b906000602091828151910182855af1156120f5576000513d61365057506001600160a01b0381163b155b61362f5750565b635274afe760e01b60009081526001600160a01b0391909116600452602490fd5b60011415613628565b90919060009060001984820990848102928380841093039280840393146136de5782670de0b6b3a764000011156136cc57507faccb18165bd6fe31ae1cf318dc5b51eee0e1ba569b88cd74c1773b91fac106699394670de0b6b3a7640000910990828211900360ee1b910360121c170290565b634e487b71905260116020526024601cfd5b505050670de0b6b3a76400009192500490565b90916000198383099280830292838086109503948086039514613786578483111561376d5790829109816000038216809204600281600302188082026002030280820260020302808202600203028082026002030280820260020302809102600203029360018380600003040190848311900302920304170290565b82634e487b71600052156003026011186020526024601cfd5b5050915081156135e857049056fea2646970667358221220db6ec9b123b906178d8d356651b1ba2514af1198ae9577e1bee062367306dfc064736f6c634300081c0033",
  "linkReferences": {},
  "deployedLinkReferences": {}
}